:0400000053EF00F0CA
:060008005682FAEF08F039
:100018005680D8CF11F0E8CF12F0E0CF13F0FACF26
:1000280014F0FBCF15F0E9CF16F0EACF17F0E1CFC7
:1000380018F0E2CF19F0D9CF1AF0DACF1BF0F3CFCE
:100048001CF0F4CF1DF0F6CF1EF0F7CF1FF0F8CF5D
:1000580020F0F5CF21F021C0F5FF20C0F8FF1FC028
:10006800F7FF1EC0F6FF1DC0F4FF1CC0F3FF1BC046
:10007800DAFF1AC0D9FF19C0E2FF18C0E1FF17C0A4
:10008800EAFF16C0E9FF15C0FBFF14C0FAFF13C052
:10009800E0FF12C0E8FF11C0D8FF5690100012EF21
:0200A8000BF05B
:10100000005A585F4552524F52005820504F533AA1
:03101000200000BD
:10101400AEEC0BF0ADEC0BF0000E936E9268000E8C
:10102400956E000E946E000E816E880ED56EF28A57
:10103400B60E426ED00EE82EFED7422EFCD700D05C
:1010440046EC09F020EE44F010EE80F00E0EDBCFFB
:10105400E3FFE806FCE2800E246E000E256E12EC1F
:101064000AF0060E436E130E426EAE0EE82EFED745
:10107400422EFCD7432EFAD72CEC0BF046EC09F0A9
:101084007B0E92EC0BF0060E436E130E426EAE0E08
:10109400E82EFED7422EFCD7432EFAD7200E536EED
:1010A4002CEC0BF046EC09F0BBEC0AF070EC0BF006
:1010B4000009D8B419D060EC0BF000018F6F000167
:1010C4008F29D8B40BD00A0E246E100E256E12ECA4
:1010D4000AF000018F5192EC0BF006D0010E246E41
:1010E400100E256E12EC0AF046EC0BF0040E436E63
:1010F4000C0E426E340EE82EFED7422EFCD7432E41
:10110400FAD7CED7276E0D0E246EFC0EE82EFED72E
:10111400242EFCD7000E286E070E286401D02FD091
:1011240028C024F0800E256E000E266E242A03D0DB
:10113400263426322532242EFBD7255027140009C5
:10114400D8B402D08B8801D08B980D0E246EFC0E7F
:10115400E82EFED7242EFCD78B860D0E246EFC0EB3
:10116400E82EFED7242EFCD78B96100E246E940EF8
:10117400E82EFED7242EFCD700D0282ACDD7080E7F
:10118400246ECA0EE82EFED7242EFCD78B88080EB8
:10119400246ECA0EE82EFED7242EFCD78B860D0EA5
:1011A400246EFC0EE82EFED7242EFCD78BA805D087
:1011B400000E546EF7EC0AF002D0010E546E060EC7
:1011C400246E300EE82EFED7242EFCD700D08B964A
:1011D400080E246ECA0EE82EFED7242EFCD78B8868
:1011E400080E246ECA0EE82EFED7242EFCD7120059
:1011F400FACF03F0FBCF04F0E9CF05F0EACF06F015
:10120400E1CF07F0E2CF08F0D9CF09F0DACF0AF046
:10121400F3CF0BF0F4CF0CF0F6CF0DF0F7CF0EF0C8
:10122400F8CF0FF0F5CF10F0F2BAF2A40FD0552892
:10123400556E020E026E040E016EBA0EE82EFED733
:10124400012EFCD7022EFAD700D0F29410C0F5FF7D
:101254000FC0F8FF0EC0F7FF0DC0F6FF0CC0F4FF7F
:101264000BC0F3FF0AC0DAFF09C0D9FF08C0E2FFD0
:1012740007C0E1FF06C0EAFF05C0E9FF04C0FBFFA9
:1012840003C0FAFF56921100829A8294020E236ED2
:10129400040E226EBA0EE82EFED7222EFCD7232E81
:1012A400FAD700D0020E836EA9EC0BF0020E836E07
:1012B400A9EC0BF00F0E836EA9EC0BF02E0EE82EAA
:1012C400FED700D0000E836EA9EC0BF00F0E836ED8
:1012D400A9EC0BF02E0EE82EFED700D0000E836E84
:1012E400A9EC0BF0010E836EA9EC0BF01A0E226E22
:1012F400F80EE82EFED7222EFCD700D0000E836E07
:10130400A9EC0BF0030E836EA9EC0BF04E0E226ECB
:10131400EB0EE82EFED7222EFCD700F01200000EB2
:10132400246E8B880D0E226EFC0EE82EFED7222E24
:10133400FCD7000E236E070E236401D029D0030EC0
:10134400226E980EE82EFED7222EFCD78B960D0E19
:10135400226EFC0EE82EFED7222EFCD78B86060EBC
:10136400226E300EE82EFED7222EFCD700D0245059
:101374002424246E8BA802D02428246E060E226E08
:10138400300EE82EFED7222EFCD700D0232AD3D746
:101394008B96060E226E300EE82EFED7222EFCD738
:1013A40000D024501200000E406E000E3F6E2B0E33
:1013B4003F24D96E000E4020DA6E29C022F02AC0E4
:1013C40023F0000E256E0A0E246E9AEC0AF02250C9
:1013D400300FDF6E3F4A402A29C022F02AC023F092
:1013E400000E256E0A0E246E4DEC0AF022C029F080
:1013F40023C02AF029502A10D8B40DD0D8D73F06DC
:10140400D8A040062B0E3F24D96E000E4020DA6E81
:10141400DF5076EC0AF03F504010D8B41200EFD7FA
:10142400000E296E000E286E1BD028502424266E30
:1014340029502520276E26C0F6FF27C0F7FF000E8F
:10144400F86E0F0EF76403D00800F55005D0F6CF00
:10145400E1FFF7CFE2FFE75076EC0AF0284A292AA9
:1014640028502424266E29502520276E26C0F6FFF6
:1014740027C0F7FF000EF86E0F0EF76403D00800C4
:10148400F55005D0F6CFE1FFF7CFE2FFE7500009B2
:10149400D8B41200CAD7000E286E000E276E24504E
:1014A4002510D8B41CD0010E266E04D0D890243652
:1014B4002536262A25AEFAD7D89027362836245042
:1014C400225C25502358D8A005D02450225E2550F4
:1014D400235A2780D89025322432262EEDD727C0D0
:1014E40022F028C023F01200236E82841A0E226E8A
:1014F400F80EE82EFED7222EFCD700D023380F0B8F
:101504000F0B836EA9EC0BF0030E226E980EE82EDF
:10151400FED7222EFCD723500F0B836EA9EC0BF0C1
:10152400030E226E980EE82EFED7222EFCD7120050
:1015340024502510D8B418D0010E266E04D0D890AB
:1015440024362536262A25AEFAD72450225C255087
:101554002358D8A004D02450225E2550235AD89072
:1015640025322432262EF1D722C022F023C023F0C4
:1015740012008B88080E226ECA0EE82EFED7222E89
:10158400FCD78B860D0E226EFC0EE82EFED7222E83
:10159400FCD78B980D0E226EFC0EE82EFED7222E61
:1015A400FCD78B96080E226ECA0EE82EFED7222E8A
:1015B400FCD71200000E236E2350D8A4120099EC1D
:1015C4000BF09C0E226ED70EE82EFED7222EFCD7EF
:1015D40000F09DEC0BF09C0E226ED70EE82EFED789
:1015E400222EFCD700F0232AE7D7000E236E2350C7
:1015F400D8A41200A1EC0BF09C0E226ED70EE82E9C
:10160400FED7222EFCD700F0A5EC0BF09C0E226E28
:10161400D70EE82EFED7222EFCD700F0232AE7D7D8
:10162400140EF66E170EF76E000EF86E00EE44F010
:1016340010EE0FF00900F5CFEEFFE550E150FAE1AE
:10164400556A546A536A56905692000EF86E000119
:101654000AEF08F08294000E836EA9EC0BF01A0EC8
:10166400226EF80EE82EFED7222EFCD700D0010EF3
:10167400836EA9EC0BF01A0E226EF80EE82EFED73C
:10168400222EFCD700D012008B98060E226E300E4C
:10169400E82EFED7222EFCD700D08B860D0E226EAC
:1016A400FC0EE82EFED7222EFCD78B880D0E226E60
:1016B400FC0EE82EFED7222EFCD712000A0E7DEC7B
:1016C4000BF02B6E5450D8B403D0F00E2B6404D01E
:1016D400DCEC0AF0FF0E12002B501200000E7DEC21
:1016E4000BF02B6E5450D8A42BA001D002D0000EC6
:1016F4001200010E1200296E295084EC08F0538068
:10170400535084EC08F091EC09F02A6E2A50120030
:0F17140048454C4C4F20574F524C4400000000AA
:10172400416E41C029F02A6AD5EC09F012008A50B2
:1017340002098A6E12008A50FD0B8A6E12008A50CA
:1017440001098A6E12008A50FE0B8A6E1200828A88
:0A17540000D0829A12001200120069
:020000040020DA
:08000000FFFFFFFFFFFFFFFF00
:020000040030CA
:0E000000FF071F1FFF8385FF0FC00FE00F409B
:00000001FF
