:0400000053EF00F0CA
:0600080056827EEF08F0B5
:100018005680D8CF11F0E8CF12F0E0CF13F0FACF26
:1000280014F0FBCF15F0E9CF16F0EACF17F0E1CFC7
:1000380018F0E2CF19F0D9CF1AF0DACF1BF0F3CFCE
:100048001CF0F4CF1DF0F6CF1EF0F7CF1FF0F8CF5D
:1000580020F0F5CF21F021C0F5FF20C0F8FF1FC028
:10006800F7FF1EC0F6FF1DC0F4FF1CC0F3FF1BC046
:10007800DAFF1AC0D9FF19C0E2FF18C0E1FF17C0A4
:10008800EAFF16C0E9FF15C0FBFF14C0FAFF13C052
:10009800E0FF12C0E8FF11C0D8FF56901000FBEF38
:0200A80009F05D
:0B1000000020583A20005A3A2000005F
:10100C008FEC0AF08EEC0AF0000E936E9268000ED4
:10101C00956E180E946E000E816E880ED56EF28A47
:10102C00B60E426ED00EE82EFED7422EFCD700D064
:10103C00CAEC08F020EE44F010EE80F00E0EDBCF80
:10104C00E3FFE806FCE2800E246E000E256E52ECE7
:10105C0009F0060E436E130E426EAE0EE82EFED74E
:10106C00422EFCD7432EFAD715EC0AF0CAEC08F046
:10107C007B0E73EC0AF0060E436E130E426EAE0E30
:10108C00E82EFED7422EFCD7432EFAD7200E536EF5
:10109C0015EC0AF0CAEC08F07AEC0AF04CEC0AF009
:1010AC0000018F6F060E246E100E256E52EC09F0A7
:1010BC0000018F5173EC0AF054EC0AF000018F6FB1
:1010CC00010E246E100E256E52EC09F000018F51AA
:1010DC0073EC0AF08CEC0AF0060E436E130E426EA3
:1010EC00AE0EE82EFED7422EFCD7432EFAD7D0D721
:1010FC00FACF03F0FBCF04F0E9CF05F0EACF06F00E
:10110C00E1CF07F0E2CF08F0D9CF09F0DACF0AF03F
:10111C00F3CF0BF0F4CF0CF0F6CF0DF0F7CF0EF0C1
:10112C00F8CF0FF0F5CF10F0F2BAF2A40FD055288B
:10113C00556E020E026E040E016EBA0EE82EFED72C
:10114C00012EFCD7022EFAD700D0F29410C0F5FF76
:10115C000FC0F8FF0EC0F7FF0DC0F6FF0CC0F4FF78
:10116C000BC0F3FF0AC0DAFF09C0D9FF08C0E2FFC9
:10117C0007C0E1FF06C0EAFF05C0E9FF04C0FBFFA2
:10118C0003C0FAFF56921100829A8294020E236ECB
:10119C00040E226EBA0EE82EFED7222EFCD7232E7A
:1011AC00FAD700D0020E836E88EC0AF0020E836E22
:1011BC0088EC0AF00F0E836E88EC0AF02E0EE82EE7
:1011CC00FED700D0000E836E88EC0AF00F0E836EF3
:1011DC0088EC0AF02E0EE82EFED700D0000E836E9F
:1011EC0088EC0AF0010E836E88EC0AF01A0E226E5F
:1011FC00F80EE82EFED7222EFCD700D0000E836E00
:10120C0088EC0AF0030E836E88EC0AF04E0E226E08
:10121C00EB0EE82EFED7222EFCD700F01200000EAB
:10122C00406E000E3F6E2B0E3F24D96E000E4020F8
:10123C00DA6E29C022F02AC023F0000E256E0A0EA9
:10124C00246EDAEC09F02250300FDF6E3F4A402A50
:10125C0029C022F02AC023F0000E256E0A0E246E3F
:10126C008DEC09F022C029F023C02AF029502A1055
:10127C00D8B40DD0D8D73F06D8A040062B0E3F24AB
:10128C00D96E000E4020DA6EDF50B6EC09F03F50FC
:10129C004010D8B41200EFD7000E296E000E286E45
:1012AC001BD028502424266E29502520276E26C0BA
:1012BC00F6FF27C0F7FF000EF86E0F0EF76403D091
:1012CC000800F55005D0F6CFE1FFF7CFE2FFE7506D
:1012DC00B6EC09F0284A292A28502424266E2950D5
:1012EC002520276E26C0F6FF27C0F7FF000EF86EEC
:1012FC000F0EF76403D00800F55005D0F6CFE1FFD0
:10130C00F7CFE2FFE7500009D8B41200CAD7000E9D
:10131C00286E000E276E24502510D8B41CD0010E58
:10132C00266E04D0D89024362536262A25AEFAD738
:10133C00D890273628362450225C25502358D8A024
:10134C0005D02450225E2550235A2780D890253270
:10135C002432262EEDD727C022F028C023F012000D
:10136C00236E82841A0E226EF80EE82EFED7222EE1
:10137C00FCD700D023380F0B0F0B836E88EC0AF0D0
:10138C00030E226E980EE82EFED7222EFCD7235089
:10139C000F0B836E88EC0AF0030E226E980EE82E6B
:1013AC00FED7222EFCD7120024502510D8B418D00A
:1013BC00010E266E04D0D89024362536262A25AE6A
:1013CC00FAD72450225C25502358D8A004D024509E
:1013DC00225E2550235AD89025322432262EF1D75E
:1013EC0022C022F023C023F01200C80EF66E140E99
:1013FC00F76E000EF86E00EE44F010EE0FF00900E0
:10140C00F5CFEEFFE550E150FAE1556A546A536AA4
:10141C0056905692000EF86E000106EF08F082947A
:10142C00000E836E88EC0AF01A0E226EF80EE82E6F
:10143C00FED7222EFCD700D0010E836E88EC0AF06A
:10144C001A0E226EF80EE82EFED7222EFCD700D0F4
:10145C001200276E25C023F0275040EC0AF084ECD4
:10146C000AF0275001096CEC0AF05CEC0AF0266ECD
:10147C0026501200246E7AEC0AF080EC0AF024500C
:10148C006CEC0AF023506CEC0AF012000A0E256E7C
:10149C0053502FEC0AF0286E28501200080E256EBF
:1014AC0053502FEC0AF0286E28501200C5869E96D9
:1014BC009EA6FED7C9CF22F02250120048454C4CB4
:0B14CC004F20574F524C44000000001E
:1014D800226E9E9622C0C9FF9EB61200FDD7416EAD
:1014E80041C029F02A6A15EC09F01200C690C6928C
:1014F800C694C686C68A1200C580C5A01200FDD74C
:10150800C582C5A21200FDD7828A00D0829A120035
:08151800C5841200120012004C
:020000040020DA
:08000000FFFFFFFFFFFFFFFF00
:020000040030CA
:0E000000FF071F1FFF8385FF0FC00FE00F409B
:00000001FF
