:0400000053EF00F0CA
:0600080051825EEF09F0D9
:100018005180D8CF0FF0E8CF10F0E0CF11F0FACF31
:1000280012F0FBCF13F0E9CF14F0EACF15F0E1CFCF
:1000380016F0E2CF17F0D9CF18F0DACF19F0F3CFD6
:100048001AF0F4CF1BF0F6CF1CF0F7CF1DF0F8CF65
:100058001EF0F5CF1FF01FC0F5FF1EC0F8FF1DC032
:10006800F7FF1CC0F6FF1BC0F4FF1AC0F3FF19C04E
:10007800DAFF18C0D9FF17C0E2FF16C0E1FF15C0AC
:10008800EAFF14C0E9FF13C0FBFF12C0FAFF11C05A
:10009800E0FF10C0E8FF0FC0D8FF51901000BAEF82
:0200A8000AF05C
:10100000004C494748545F53574954434800200017
:0110100000DF
:1010120048EC0CF047EC0CF0000E936E9268000E58
:10102200956E180E946E000E816E9494880ED56E95
:10103200F28AF28E5B0E2C6EE80EE82EFED72C2E74
:10104200FCD719EC09F020EEA7F010EE96F00E0E88
:10105200DBCFE3FFE806FCE2960E226E000E236E63
:10106200E4EC09F0030E2D6E8A0E2C6E560EE82E5D
:10107200FED72C2EFCD72D2EFAD7200E4C6EE7EC85
:101082000BF04BEC0BF0FBEC0BF00001A56F0E0E1E
:10109200226E100E236EE4EC09F050C029F02A6A89
:1010A200B0EC0BF0A5C026F0276A2DEC0BF01FEC7C
:1010B2000AF026042710D8A413D0C0EC0BF0010EBE
:1010C200226E100E236EE4EC09F0030E2D6E8A0ED2
:1010D2002C6E560EE82EFED72C2EFCD72D2EFAD7CC
:1010E20085EC0BF00001A66F06D020EC0CF00CD0C2
:1010F20026EC0CF009D00001A651010AD8B4F5D7AC
:10110200030AD8B4F5D7010A680E2C6EE40EE82E55
:10111200FED72C2EFCD700D0B6D7000E216E030EC0
:10112200206EF2EC0BF0040E2D6E0C0E2C6E340EB3
:10113200E82EFED72C2EFCD72D2EFAD7000E216ECC
:10114200020E206EF2EC0BF0040E2D6E0C0E2C6EC5
:10115200340EE82EFED72C2EFCD72D2EFAD7000EF9
:10116200216E010E206EF2EC0BF0040E2D6E0C0EB1
:101172002C6E340EE82EFED72C2EFCD72D2EFAD74D
:10118200000E216E020E206EF2EC0BF0040E2D6E9C
:101192000C0E2C6E340EE82EFED72C2EFCD72D2EE4
:1011A200FAD7BBD7000E0001956F000E946F800E28
:1011B20000019425D96E000E00019521DA6E27C038
:1011C20020F028C021F0000E236E0A0E226E0CECD5
:1011D2000BF02050300FDF6E0001944B952B27C08F
:1011E20020F028C021F0000E236E0A0E226EE3ECDE
:1011F2000AF020C027F021C028F027502810D8B4C8
:1012020010D0D5D700019407D8A09507800E000111
:101212009425D96E000E00019521DA6EDF5068EC3C
:101222000BF00001945100019511D8B41200EAD7D5
:10123200829A8294820E206EDE0EE82EFED7202E37
:10124200FCD7020E836E42EC0CF0020E836E42EC6F
:101252000CF00F0E836E42EC0CF0170EE82EFED748
:1012620000F0000E836E42EC0CF00F0E836E42EC27
:101272000CF0170EE82EFED700F0000E836E42EC43
:101282000CF0010E836E42EC0CF00D0E206EFC0E83
:10129200E82EFED7202EFCD7000E836E42EC0CF017
:1012A200030E836E42EC0CF0270E206EF50EE82E34
:1012B200FED7202EFCD700F01200FACF01F0FBCFB0
:1012C20002F0E9CF03F0EACF04F0E1CF05F0E2CF7C
:1012D20006F0D9CF07F0DACF08F0F3CF09F0F4CF58
:1012E2000AF0F6CF0BF0F7CF0CF0F8CF0DF0F5CFF8
:1012F2000EF0F2BAF2A406D0A1EC09F0F294D7688B
:10130200800ED66E0EC0F5FF0DC0F8FF0CC0F7FFC1
:101312000BC0F6FF0AC0F4FF09C0F3FF08C0DAFFF2
:1013220007C0D9FF06C0E2FF05C0E1FF04C0EAFF23
:1013320003C0E9FF02C0FBFF01C0FAFF5192110096
:1013420048504910D8A404D046504710D8B40ED003
:1013520048504910D8B405D04806D8A0490682841E
:1013620012004606D8A047068294120045502AE190
:101372001E0E445CD8B01200444A452A030E4A1895
:101382004B10D8A409D0000E496E050E486E000E0F
:10139200476E0F0E466E12004A044B10D8A409D0B5
:1013A200000E496E0B0E486E000E476E090E466E19
:1013B2001200000E496E080E486E000E476E0C0EAB
:1013C200466E12001200000E276E000E266E1BD013
:1013D20026502224246E27502320256E24C0F6FF97
:1013E20025C0F7FF000EF86E0F0EF76403D0080059
:1013F200F55005D0F6CFE1FFF7CFE2FFE75068ECFA
:101402000BF0264A272A26502224246E2750232016
:10141200256E24C0F6FF25C0F7FF000EF86E0F0EF2
:10142200F76403D00800F55005D0F6CFE1FFF7CFFF
:10143200E2FFE7500009D8B41200CAD7000E2B6EA3
:101442000A0E2A6E2BBE2ED02B5004E1080E2A5C07
:10145200D8A028D02A504224206E2B504320216E3F
:10146200000E236E0A0E226E58EC0AF0D890203637
:1014720021362E0E2024D96E000E2120DA6E010EA6
:10148200DBBE0CD0010EDB5004E1150EDE5CD8A0F1
:1014920005D0000E276E000E266E12002A06D8A076
:1014A2002B06D0D7000E276E010E266E1200000EFC
:1014B200256E21AE06D0206C211ED8B0212A010E45
:1014C200256E23AE04D0226C231ED8B0232A2250CC
:1014D2002310D8B418D0010E246E04D0D89022362E
:1014E2002336242A23AEFAD72250205C23502158D7
:1014F200D8A004D02250205E2350215AD890233203
:101502002232242EF1D72550D8B404D0206C211ECB
:10151200D8B0212A20C020F021C021F01200140EE0
:10152200506421D0EC0E216EFF0E226E5050236EBD
:10153200246A215023262250242224BE06D024507D
:1015420009E1150E235CD8B005D0000E266E140EEC
:10155200256E06D0EC0E5024256E266AFF0E26223A
:1015620025C050F002D0140E506E50502CEC0CF0EE
:101572001200160EF66E180EF76E000EF86E00EEE2
:10158200A7F010EE0FF00900F5CFEEFFE550E150A5
:10159200FAE18C0EF66E180EF76E000EF86E090068
:1015A200F5CF4FF00900F5CF50F000EE2EF0210EEE
:1015B200EE6AE806FDE151905192000EF86E0001CC
:1015C20009EF08F0000E266E000E256E2250231041
:1015D200D8B41CD0010E246E04D0D8902236233603
:1015E200242A23AEFAD7D890253626362250205CFC
:1015F20023502158D8A005D02250205E2350215AD2
:101602002580D89023322232242EEDD725C020F017
:1016120026C021F0120022502310D8B418D0010E97
:10162200246E04D0D89022362336242A23AEFAD749
:101632002250205C23502158D8A004D02250205E92
:101642002350215AD89023322232242EF1D720C09F
:1016520020F021C021F01200010E4224206E000E63
:101662004320216E000E236E0A0E226E58EC0AF001
:1016720020C042F021C043F0D8904234D96E4334A6
:10168200DA6E2E0ED926000EDA2226C0DEFF27C021
:10169200DDFF1200000E216E000E206E21BE06D06C
:1016A200215014E10A0E205CD8B01200D8902034E8
:1016B200D96E2134DA6E2E0ED926000EDA22650E8C
:1016C200DE6E000EDD6E204A212AE8D71200216E5E
:1016D20082840D0E206EFC0EE82EFED7202EFCD743
:1016E20021380F0B0F0B836E42EC0CF0C80E00D0AA
:1016F200E82EFDD721500F0B836E42EC0CF0C80E82
:1017020000D0E82EFDD71200040E236E4C509FEC41
:101712000BF0266E08D0010E1200020E1200030E0C
:101722001200FF0E12002650010AD8B4F4D7030AA1
:10173200D8B4F3D7010AD8B4F2D7F3D7256E23C0B1
:1017420021F02550CFEC0BF036EC0CF025500109BE
:1017520013EC0CF003EC0CF0246E245012002AAEB1
:1017620007D02D0E68EC0BF0296C2A1ED8B02A2A5D
:1017720029C027F02AC028F0D3EC08F012004F50FD
:10178200D8A405D0010E4F6E3AEC0CF004D0000E36
:101792004F6E3EEC0CF04BEC0BF01200226E1AEC8A
:1017A2000CF032EC0CF0225013EC0CF0215013EC44
:1017B2000CF01200390E506003D05050140F01D0BB
:1017C2004D0E506E50502CEC0CF012004F0ECB6EA2
:1017D200280EBB6E1E0EBA6E9492030ECA6ECA8497
:1017E200120020C04AF021C04BF0000E456E000EE0
:1017F200446E12000A0E236E4C509FEC0BF0266EC4
:1018020026501200C5869E969EA6FED7C9CF20F00E
:101812002050120050524F4752414D2042454749F5
:031822004E000075
:10182600206E9E9620C0C9FF9EB61200FDD7C690B8
:10183600C692C694C686C68A12004F04D8A4120061
:1018460090EC0AF012004F04D8A41200DBEC0BF067
:101856001200206E20C0BBFFCA849E941200C58071
:10186600C5A01200FDD7C582C5A21200FDD75050F3
:101876002CEC0CF01200610E2CEC0CF01200828A9B
:0C18860000F0829A1200012D12001200E6
:020000040020DA
:08000000FFFFFFFFFFFFFFFF00
:020000040030CA
:0E000000FF071F1FFF8385FF0FC00FE00F409B
:00000001FF
