:0400000053EF00F0CA
:06000800578255EF00F0E5
:100018005780D8CF15F0E8CF16F0E0CF17F0FACF19
:1000280018F0FBCF19F0E9CF1AF0EACF1BF0E1CFB7
:100038001CF0E2CF1DF0D9CF1EF0DACF1FF0F3CFBE
:1000480020F0F4CF21F0F6CF22F0F7CF23F0F8CF4D
:1000580024F0F5CF25F025C0F5FF24C0F8FF23C014
:10006800F7FF22C0F6FF21C0F4FF20C0F3FF1FC036
:10007800DAFF1EC0D9FF1DC0E2FF1CC0E1FF1BC094
:10008800EAFF1AC0E9FF19C0FBFF18C0FAFF17C042
:10009800E0FF16C0E8FF15C0D8FF5790100018EF12
:1000A80002F0FACF07F0FBCF08F0E9CF09F0EACF6A
:1000B8000AF0E1CF0BF0E2CF0CF0D9CF0DF0DACF98
:1000C8000EF0F3CF0FF0F4CF10F0F6CF11F0F7CF1A
:1000D80012F0F8CF13F0F5CF14F09DBA9EAA27D0EE
:1000E8005150010D800EF324D96E000EF420DA6E03
:1000F800AECFDFFF5150010D800EF324D96E000EF4
:10010800F420DA6EDF5064EC02F0010E5124016E27
:10011800026A000E0222000E046E640E036EE0EC0A
:1001280001F00150516E010E536E89849E9AF2BA05
:10013800F2A406D065EC01F0F294D768800ED66E72
:1001480014C0F5FF13C0F8FF12C0F7FF11C0F6FF87
:1001580010C0F4FF0FC0F3FF0EC0DAFF0DC0D9FFC7
:100168000CC0E2FF0BC0E1FF0AC0EAFF09C0E9FFCB
:1001780008C0FBFF07C0FAFF5792110070EC02F0AD
:100188006FEC02F0000E936E9268000E956E180EDA
:10019800946E000E816E9494880ED56EF28AF28E5B
:1001A8005B0E2C6EE80EE82EFED72C2EFCD720EC2A
:1001B80001F0030E2D6E8A0E2C6E560EE82EFED719
:1001C8002C2EFCD72D2EFAD754EC02F0060E2D6EED
:1001D800130E2C6EAE0EE82EFED72C2EFCD72D2E2D
:1001E800FAD70D0E2C6EFC0EE82EFED72C2EFCD75F
:1001F8005304D8B41AD0EAD75250010D800EF32414
:10020800D96E000EF420DA6EDF5037EC02F0010EE2
:100218005224266E276A000E2722000E296E640ECD
:10022800286EA8EC01F02650526E51505218D8A4EE
:10023800E3D7000E536ECAD7829A8294820E266E36
:10024800DE0EE82EFED7262EFCD7020E836E6AEC51
:1002580002F0020E836E6AEC02F00F0E836E6AECF7
:1002680002F0170EE82EFED700F0000E836E6AEC3F
:1002780002F00F0E836E6AEC02F0170EE82EFED71E
:1002880000F0000E836E6AEC02F0010E836E6AECD9
:1002980002F00D0E266EFC0EE82EFED7262EFCD799
:1002A800000E836E6AEC02F0030E836E6AEC02F0B5
:1002B800270E266EF50EE82EFED7262EFCD700F068
:1002C80012004A504B10D8A404D048504910D8B452
:1002D8000ED04A504B10D8B405D04A06D8A04B06C9
:1002E800828412004806D8A049068294120047501A
:1002F8002AE11E0E465CD8B01200464A472A030E71
:100308004C184D10D8A409D0000E4B6E050E4A6E3D
:10031800000E496E0F0E486E12004C044D10D8A402
:1003280009D0000E4B6E0B0E4A6E000E496E090E78
:10033800486E1200000E4B6E080E4A6E000E496E93
:100348000C0E486E12001200000E2B6E27AE06D05F
:10035800266C271ED8B0272A010E2B6E29AE04D092
:10036800286C291ED8B0292A28502910D8B418D0AA
:10037800010E2A6E04D0D890283629362A2A29AEAA
:10038800FAD72850265C29502758D8A004D02850DE
:10039800265E2950275AD890293228322A2EF1D79A
:1003A8002B50D8B404D0266C271ED8B0272A26C0D4
:1003B80026F027C027F01200000E066E02AE06D007
:1003C800016C021ED8B0022A010E066E04AE04D0DB
:1003D800036C041ED8B0042A03500410D8B418D0F3
:1003E800010E056E04D0D89003360436052A04AEF3
:1003F800FAD70350015C04500258D8A004D0035027
:10040800015E0450025AD89004320332052EF1D707
:100418000650D8B404D0016C021ED8B0022A01C01C
:1004280001F002C002F01200DC0EF66E040EF76E48
:10043800000EF86E0900F5CF55F00900F5CF56F01B
:1004480000EE80F0690EEE6AE806FDE100EE2EF09F
:10045800270EEE6AE806FDE157905792000EF86EF7
:100468000001C2EF00F0276E82840D0E266EFC0E8E
:10047800E82EFED7262EFCD727380F0B0F0B836EDE
:100488006AEC02F0C80E00D0E82EFDD727500F0BFB
:10049800836E6AEC02F0C80E00D0E82EFDD7120079
:1004A800948E948CAC84B886AC98000EB06E070E0F
:1004B800AF6E9D8AF28CF28EAB88AC8AAB8E12003E
:1004C800016E01C0ADFFACB21200FDD7828A00F008
:0A04D800829A1200012D120012009A
:020000040020DA
:08000000FFFFFFFFFFFFFFFF00
:020000040030CA
:0E000000FF071F1FFF8385FF0FC00FE00F409B
:00000001FF
