:0400000053EF00F0CA
:060008005E82BBEF08F070
:100018005E80D8CF11F0E8CF12F0E0CF13F0FACF1E
:1000280014F0FBCF15F0E9CF16F0EACF17F0E1CFC7
:1000380018F0E2CF19F0D9CF1AF0DACF1BF0F3CFCE
:100048001CF0F4CF1DF0F6CF1EF0F7CF1FF0F8CF5D
:1000580020F0F5CF21F021C0F5FF20C0F8FF1FC028
:10006800F7FF1EC0F6FF1DC0F4FF1CC0F3FF1BC046
:10007800DAFF1AC0D9FF19C0E2FF18C0E1FF17C0A4
:10008800EAFF16C0E9FF15C0FBFF14C0FAFF13C052
:10009800E0FF12C0E8FF11C0D8FF5E90100000EF2B
:0200A8000AF05C
:10100000004C494748545F53574954434800200017
:0110100000DF
:10101200C8EC0BF0C7EC0BF0000E936E9268000E5A
:10102200956E180E946E000E816E880ED56EF28A41
:10103200B60E0001806FD00EE82EFED7802FFCD7AF
:1010420000F007EC09F020EE93F010EE82F00E0EA5
:10105200DBCFE3FFE806FCE2060E0001816F130E10
:101062000001806FAD0EE82EFED7802FFCD7812FB6
:10107200FAD700D0200E596E61EC0BF0BAEC0BF0EF
:10108200D00E0001806FC90EE82EFED7802FFCD74C
:1010920000D0BEEC0BF0D00E0001806FC90EE82E1E
:1010A200FED7802FFCD700D0DAEC0AF0BAEC0BF0B6
:1010B200D00E0001806FC90EE82EFED7802FFCD71C
:1010C20000D0BEEC0BF0D00E0001806FC90EE82EEE
:1010D200FED7802FFCD700D06CEC0BF00001926F92
:1010E2000E0E246E100E256E52EC0AF092C041F0E4
:1010F200426A36EC0BF092C028F0296ABCEC0AF086
:101102008FEC09F028042910D8A416D046EC0BF075
:10111200010E246E100E256E52EC0AF0060E00012E
:10112200816F130E0001806FAD0EE82EFED7802F67
:10113200FCD7812FFAD700D0F7EC0AF00001916FAB
:1011420006D098EC0BF00CD09EEC0BF009D000010D
:101152009151010AD8B4F5D7030AD8B4F5D7010AD8
:101162001A0E0001806FF80EE82EFED7802FFCD7F2
:1011720000F0B2D7FACF03F0FBCF04F0E9CF05F0CD
:10118200EACF06F0E1CF07F0E2CF08F0D9CF09F0BD
:10119200DACF0AF0F3CF0BF0F4CF0CF0F6CF0DF06C
:1011A200F7CF0EF0F8CF0FF0F5CF10F0F2BAF2A4AD
:1011B2000FD05B285B6E020E026E040E016EBA0E39
:1011C200E82EFED7012EFCD7022EFAD700D0F294D9
:1011D20010C0F5FF0FC0F8FF0EC0F7FF0DC0F6FFFD
:1011E2000CC0F4FF0BC0F3FF0AC0DAFF09C0D9FF3D
:1011F20008C0E2FF07C0E1FF06C0EAFF05C0E9FF41
:1012020004C0FBFF03C0FAFF5E921100829A82942F
:10121200020E236E040E226EBA0EE82EFED7222E86
:10122200FCD7232EFAD700D0020E836EC2EC0BF04D
:10123200020E836EC2EC0BF00F0E836EC2EC0BF04B
:101242002E0EE82EFED700D0000E836EC2EC0BF0FD
:101252000F0E836EC2EC0BF02E0EE82EFED700D0DE
:10126200000E836EC2EC0BF0010E836EC2EC0BF02B
:101272001A0E226EF80EE82EFED7222EFCD700D0D0
:10128200000E836EC2EC0BF0030E836EC2EC0BF009
:101292004E0E226EEB0EE82EFED7222EFCD700F069
:1012A2001200000E406E000E3F6E2B0E3F24D96ED0
:1012B200000E4020DA6E29C022F02AC023F0000E70
:1012C200256E0A0E246E9BEC0AF02250300FDF6E60
:1012D2003F4A402A29C022F02AC023F0000E256E80
:1012E2000A0E246E29EC0AF022C029F023C02AF04B
:1012F20029502A10D8B40DD0D8D73F06D8A040061E
:101302002B0E3F24D96E000E4020DA6EDF5077ECB0
:101312000AF03F504010D8B41200EFD7000E2D6EE5
:101322000A0E2C6E2DBE2ED02D5004E1080E2C5C20
:10133200D8A028D02C505724226E2D505820236E2E
:10134200000E256E0A0E246EC8EC09F0D8902236E3
:101352002336430E2224D96E000E2320DA6E010EAC
:10136200DBBE0CD0010EDB5004E1150EDE5CD8A012
:1013720005D0000E296E000E286E12002C06D8A091
:101382002D06D0D7000E296E010E286E1200000E17
:10139200276E23AE06D0226C231ED8B0232A010E5C
:1013A200276E25AE04D0246C251ED8B0252A2450E1
:1013B2002510D8B418D0010E266E04D0D890243649
:1013C2002536262A25AEFAD72450225C25502358EA
:1013D200D8A004D02450225E2550235AD89025321A
:1013E2002432262EF1D72750D8B404D0226C231EE3
:1013F200D8B0232A22C022F023C023F01200F80E14
:10140200F66E160EF76E000EF86E00EE93F010EE0A
:101412000FF00900F5CFEEFFE550E150FAE18C0E36
:10142200F66E170EF76E000EF86E0900F5CF5CF03F
:101432000900F5CF5DF000EE43F0190EEE6AE80602
:10144200FDE15E905E92000EF86E000109EF08F079
:10145200000E286E000E276E24502510D8B41CD022
:10146200010E266E04D0D89024362536262A25AEC3
:10147200FAD7D890273628362450225C2550235894
:10148200D8A005D02450225E2550235A2780D89018
:1014920025322432262EEDD727C022F028C023F091
:1014A2001200000E296E000E286E10D0285024243F
:1014B200266E29502520276E26C0F6FF27C0F7FF8B
:1014C2000800F55077EC0AF0284A292A28502424EB
:1014D200266E29502520276E26C0F6FF27C0F7FF6B
:1014E2000800F5500009D8B41200E0D7236E8284B8
:1014F2001A0E226EF80EE82EFED7222EFCD700D04E
:1015020023380F0B0F0B836EC2EC0BF0030E226E0F
:10151200980EE82EFED7222EFCD723500F0B836E97
:10152200C2EC0BF0030E226E980EE82EFED7222E8E
:10153200FCD7120024502510D8B418D0010E266E04
:1015420004D0D89024362536262A25AEFAD7245040
:10155200225C25502358D8A004D02450225E255066
:10156200235AD89025322432262EF1D722C022F0D7
:1015720023C023F01200010E5724226E000E5820C1
:10158200236E000E256E0A0E246EC8EC09F022C0EE
:1015920057F023C058F0D8905734D96E5834DA6EC9
:1015A200430ED926000EDA2228C0DEFF29C0DDFF55
:1015B2001200000E236E000E226E23BE06D02350B0
:1015C20014E10A0E225CD8B01200D8902234D96EEF
:1015D2002334DA6E430ED926000EDA22650EDE6E51
:1015E200000EDD6E224A232AE8D71200040E256E71
:1015F200595025EC0BF0286E08D0010E1200020E95
:101602001200030E1200FF0E12002850010AD8B475
:10161200F4D7030AD8B4F3D7010AD8B4F2D7F3D770
:101622005D50080F5D6E320E5D6004D05DC023F028
:10163200246A04D0000E246E310E236E23C05DF0A6
:101642005D50A4EC0BF01200276E25C023F027504A
:1016520055EC0BF0AEEC0BF02750010984EC0BF0CB
:1016620074EC0BF0266E2650120042AE07D02D0EFF
:1016720077EC0AF0416C421ED8B0422A41C029F0F0
:1016820042C02AF052EC09F012005C50D8A405D0F6
:10169200010E5C6EB2EC0BF004D0000E5C6EB6EC88
:1016A2000BF0DAEC0AF01200246E92EC0BF0AAECCA
:1016B2000BF0245084EC0BF0235084EC0BF012005E
:1016C20094921F0EBA6E000ECA6E330ECB6E190EB6
:1016D200A4EC0BF012000A0E256E595025EC0BF00B
:1016E200286E28501200C5869E969EA6FED7C9CFA8
:1016F20022F02250120050524F4752414D20424593
:0517020047494E000004
:10170800226E9E9622C0C9FF9EB61200FDD75D507C
:10171800F80F5D6E5D50A4EC0BF01200C690C692F7
:10172800C694C686C68A12005C04D8A4120011ECBE
:101738000BF012005C04D8A412008BEC0BF0120022
:10174800226E22C0BBFFCA849E941200C580C5A029
:101758001200FDD7C582C5A21200FDD75D50A4ECCA
:101768000BF01200000EA4EC0BF012008A500209D4
:101778008A6E12008A50FD0B8A6E1200828A00D08F
:0A178800829A1200011412001200F0
:020000040020DA
:08000000FFFFFFFFFFFFFFFF00
:020000040030CA
:0E000000FF071F1FFF8385FF0FC00FE00F409B
:00000001FF
