:0400000053EF00F0CA
:060008005A820BEF0AF022
:100018005A80D8CF15F0E8CF16F0E0CF17F0FACF16
:1000280018F0FBCF19F0E9CF1AF0EACF1BF0E1CFB7
:100038001CF0E2CF1DF0D9CF1EF0DACF1FF0F3CFBE
:1000480020F0F4CF21F0F6CF22F0F7CF23F0F8CF4D
:1000580024F0F5CF25F025C0F5FF24C0F8FF23C014
:10006800F7FF22C0F6FF21C0F4FF20C0F3FF1FC036
:10007800DAFF1EC0D9FF1DC0E2FF1CC0E1FF1BC094
:10008800EAFF1AC0E9FF19C0FBFF18C0FAFF17C042
:10009800E0FF16C0E8FF15C0D8FF5A9010008FEF98
:0200A8000CF05A
:10100000004C494748545F53574954434800200017
:0110100000DF
:10101200000E2D6E5550010D800EF324D96E000E78
:10102200F420DA6E6F0EDE18D8B40CD05550010DD4
:10103200800EF324D96E000EF420DA6E4F0EDE1805
:10104200D8A442D0010E5524266E276A000E27220C
:10105200000E296E640E286E86EC0BF02650556E3B
:101062005550010D800EF324D96E000EF420DA6E75
:10107200640EDE18D8B40CD05550010D800EF32446
:10108200D96E000EF420DA6E440EDE18D8A402D017
:10109200010E2D6E5550010D800EF324D96E000EF7
:1010A200F420DA6E610EDE18D8B40CD05550010D62
:1010B200800EF324D96E000EF420DA6E410EDE1893
:1010C200D8A4B8D0050EB5D05550010D800EF3242A
:1010D200D96E000EF420DA6E630EDE18D8B40CD08E
:1010E2005550010D800EF324D96E000EF420DA6EF5
:1010F200430EDE18D8A442D0010E5524266E276A6C
:10110200000E2722000E296E640E286E86EC0BF06C
:101112002650556E5550010D800EF324D96E000EE7
:10112200F420DA6E640EDE18D8B40CD05550010DDE
:10113200800EF324D96E000EF420DA6E440EDE180F
:10114200D8A402D0020E2D6E5550010D800EF3244C
:10115200D96E000EF420DA6E610EDE18D8B40CD00F
:101162005550010D800EF324D96E000EF420DA6E74
:10117200410EDE18D8A45ED0060E5BD05550010D8C
:10118200800EF324D96E000EF420DA6E6D0EDE1896
:10119200D8B40CD05550010D800EF324D96E000E38
:1011A200F420DA6E4D0EDE18D8A402D0030E2D6E96
:1011B2005550010D800EF324D96E000EF420DA6E24
:1011C2006C0EDE18D8B40CD05550010D800EF324ED
:1011D200D96E000EF420DA6E4C0EDE18D8A402D0BE
:1011E200040E2D6E010E5524266E276A000E27224C
:1011F200000E296E640E286E86EC0BF02650556E9A
:101202005550010D800EF324D96E000EF420DA6ED3
:101212006C0EDE18D8B40ED05550010D800EF3249A
:10122200D96E000EF420DA6E4C0EDE18D8A402D06D
:10123200000E2D6E010E5524266E276A000E2722FF
:10124200000E296E640E286E86EC0BF02650556E49
:101252002D501200E3EC0DF0E2EC0DF0000E936E57
:101262009268000E956E180E946E000E816E949424
:10127200880ED56EF28AF28E5B0E0101006FE70EC8
:10128200E82EFED7002FFCD700D0BEEC0AF0030EEA
:101292000101016F8A0E0101006F550EE82EFED783
:1012A200002FFCD7012FFAD700D078EC0DF041ECDB
:1012B2000DF0200E516ECCEC0CF05604D8B41AD0BE
:1012C2001FD05550010D800EF324D96E000EF4206C
:1012D200DA6EDF50E9EC0CF0010E5524266E276A17
:1012E200000E2722000E296E640E286E86EC0BF08B
:1012F2002650556E54505518D8A4E3D7000E566E9A
:101302008CEC0DF00101046F0E0E286E100E296E8A
:1013120049EC0CF004C12FF0306A31EC0DF004C13D
:101322002CF02D6AAEEC0CF046EC0BF02C042D10D8
:10133200D8A416D051EC0DF0010E286E100E296EB5
:1013420049EC0CF0030E0101016F8A0E0101006FDE
:10135200550EE82EFED7002FFCD7012FFAD700D06A
:1013620006EC0DF00101026F06D0A9EC0DF00CD0D5
:10137200AFEC0DF009D001010251010AD8B4F5D742
:10138200030AD8B4F5D7010A5604D8A439D0030EFB
:101392000101006F970EE82EFED7002FFCD700D078
:1013A20009EC08F00101036F12D0C9EC0DF026D050
:1013B200D9EC0DF023D0A9EC0DF020D0AFEC0DF05C
:1013C2001DD0DDEC0DF01AD0DFEC0DF017D00101CD
:1013D2000351000AD8B412D0010AD8B4E6D7030ADE
:1013E200D8B4E6D7010AD8B4E6D7070AD8B4E6D704
:1013F200010AD8B4E6D7030AD8B4E6D7000E566E6F
:101402000D0E0101006FFB0EE82EFED7002FFCD758
:1014120000D053D7FACF07F0FBCF08F0E9CF09F09D
:10142200EACF0AF0E1CF0BF0E2CF0CF0D9CF0DF00A
:10143200DACF0EF0F3CF0FF0F4CF10F0F6CF11F0B9
:10144200F7CF12F0F8CF13F0F5CF14F09DBA9EAAA1
:1014520027D05450010D800EF324D96E000EF420D3
:10146200DA6EAECFDFFF5450010D800EF324D96E39
:10147200000EF420DA6EDF50BBEC0DF0010E5424A6
:10148200016E026A000E0222000E046E640E036EEA
:10149200BEEC0BF00150546E010E566E89849E9A7A
:1014A200F2BAF2A406D003EC0BF0F294D768800EE5
:1014B200D66E14C0F5FF13C0F8FF12C0F7FF11C0BB
:1014C200F6FF10C0F4FF0FC0F3FF0EC0DAFF0DC02D
:1014D200D9FF0CC0E2FF0BC0E1FF0AC0EAFF09C05E
:1014E200E9FF08C0FBFF07C0FAFF5A921100000E85
:1014F2000001FE6F000EFD6FE90E0001FD25D96EA1
:10150200000E0001FE21DA6E2DC026F02EC027F05B
:10151200000E296E0A0E286E6EEC0CF02650300F6B
:10152200DF6E0001FD4BFE2B2DC026F02EC027F0F2
:10153200000E296E0A0E286E20EC0CF026C02DF04B
:1015420027C02EF02D502E10D8B410D0D5D70001C0
:10155200FD07D8A0FE07E90E0001FD25D96E000E99
:101562000001FE21DA6EDF50E9EC0CF00001FD51C2
:101572000001FE11D8B41200EAD7829A8294820E38
:10158200266EDE0EE82EFED7262EFCD7020E836EC6
:10159200D5EC0DF0020E836ED5EC0DF00F0E836EBE
:1015A200D5EC0DF0170EE82EFED700F0000E836E7C
:1015B200D5EC0DF00F0E836ED5EC0DF0170EE82E64
:1015C200FED700F0000E836ED5EC0DF0010E836E97
:1015D200D5EC0DF00D0E266EFC0EE82EFED7262E53
:1015E200FCD7000E836ED5EC0DF0030E836ED5ECA6
:1015F2000DF0270E266EF50EE82EFED7262EFCD70E
:1016020000F012004D504E10D8A404D04B504C1094
:10161200D8B40ED04D504E10D8B405D04D06D8A037
:101622004E06828412004B06D8A04C068294120009
:101632004A502AE12D0E495CD8B01200494A4A2A82
:10164200030E4F185010D8A409D0000E4E6E050E8E
:101652004D6E000E4C6E0F0E4B6E12004F0450106A
:10166200D8A409D0000E4E6E0B0E4D6E000E4C6EBD
:10167200090E4B6E1200000E4E6E080E4D6E000EDD
:101682004C6E0C0E4B6E12001200000E0001EA6F3F
:101692000A0EE96F0001EABF33D00001EA5105E109
:1016A200080E0001E95DD8A02BD00001E9514724C2
:1016B200266E0001EA514820276E000E296E0A0E9E
:1016C200286E86EC0BF0D89026362736310E26246B
:1016D200D96E000E2720DA6E010EDBBE0CD0010E91
:1016E200DB5004E1150EDE5CD8A005D0000E2D6E95
:1016F200000E2C6E12000001E907D8A0EA07CAD733
:10170200000E2D6E010E2C6E1200000E2B6E27AEF7
:1017120006D0266C271ED8B0272A010E2B6E29AEC2
:1017220004D0286C291ED8B0292A28502910D8B4F0
:1017320018D0010E2A6E04D0D890283629362A2ACB
:1017420029AEFAD72850265C29502758D8A004D0B1
:101752002850265E2950275AD890293228322A2E1C
:10176200F1D72B50D8B404D0266C271ED8B0272A24
:1017720026C026F027C027F01200000E066E02AE29
:1017820006D0016C021ED8B0022A010E066E04AE0B
:1017920004D0036C041ED8B0042A03500410D8B439
:1017A20018D0010E056E04D0D89003360436052AEF
:1017B20004AEFAD70350015C04500258D8A004D0FA
:1017C2000350015E0450025AD89004320332052EAF
:1017D200F1D70650D8B404D0016C021ED8B0022A48
:1017E20001C001F002C002F01200140E596421D0AF
:1017F200EC0E276EFF0E286E5950296E2A6A27506A
:10180200292628502A222ABE06D02A5009E1150E7E
:10181200295CD8B005D0000E2C6E140E2B6E06D0AB
:10182200EC0E59242B6E2C6AFF0E2C222BC059F081
:1018320002D0140E596E5950B5EC0DF01200000E84
:101842002C6E000E2B6E28502910D8B41CD0010E1D
:101852002A6E04D0D890283629362A2A29AEFAD7F9
:10186200D8902B362C362850265C29502758D8A0E1
:1018720005D02850265E2950275A2B80D89029322D
:1018820028322A2EEDD72BC026F02CC027F01200CA
:10189200000E2D6E000E2C6E10D02C5028242A6EB5
:1018A2002D5029202B6E2AC0F6FF2BC0F7FF08000F
:1018B200F550E9EC0CF02C4A2D2A2C5028242A6EE3
:1018C2002D5029202B6E2AC0F6FF2BC0F7FF0800EF
:1018D200F5500009D8B41200E0D728502910D8B426
:1018E20018D0010E2A6E04D0D890283629362A2A1A
:1018F20029AEFAD72850265C29502758D8A004D000
:101902002850265E2950275AD890293228322A2E6A
:10191200F1D726C026F027C027F01200C20EF66EBD
:101922001B0EF76E000EF86E0900F5CF58F0090095
:10193200F5CF59F000EE80F0690EEE6AE806FDE19F
:1019420000EE31F0270EEE6AE806FDE15A905A9257
:10195200000EF86E00012BEF09F0010E4724266EEF
:10196200000E4820276E000E296E0A0E286E86ECA5
:101972000BF026C047F027C048F0D8904734D96E04
:101982004834DA6E310ED926000EDA222CC0DEFF80
:101992002DC0DDFF1200000E276E000E266E27BE40
:1019A20006D0275014E10A0E265CD8B01200D89057
:1019B2002634D96E2734DA6E310ED926000EDA2299
:1019C200650EDE6E000EDD6E264A272AE8D712006B
:1019D200276E82840D0E266EFC0EE82EFED7262E72
:1019E200FCD727380F0B0F0B836ED5EC0DF0C80E0A
:1019F20000D0E82EFDD727500F0B836ED5EC0DF0EB
:101A0200C80E00D0E82EFDD71200040E296E5150E8
:101A120020EC0DF02C6E08D0010E1200020E120006
:101A2200030E1200FF0E12002C50010AD8B4F4D794
:101A3200030AD8B4F3D7010AD8B4F2D7F3D72B6E7E
:101A420029C027F02B5060EC0DF0C5EC0DF02B50A7
:101A520001099CEC0DF094EC0DF02A6E2A50120054
:101A620030AE07D02D0EE9EC0CF02F6C301ED8B042
:101A7200302A2FC02DF030C02EF078EC0AF0120080
:101A8200948E948CAC84B886AC98000EB06E070E1F
:101A9200AF6E9D8AF28CF28EAB88AC8AAB8E12004E
:101AA2005850D8A405D0010E586ECDEC0DF004D0DC
:101AB200000E586ED1EC0DF0CCEC0CF01200286E3A
:101AC200A3EC0DF0C1EC0DF028509CEC0DF027506A
:101AD2009CEC0DF01200390E596003D05950140FCE
:101AE20001D04D0E596E5950B5EC0DF012004F0E4B
:101AF200CB6E280EBB6E1E0EBA6E9492030ECA6E89
:101B0200CA841200266E26C04FF0506A000E4A6E3A
:101B1200000E496E12000A0E296E515020EC0DF093
:101B22002C6E2C501200C5869E969EA6FED7C9CF5B
:101B320026F026501200266E9E9626C0C9FF9EB63B
:101B42001200FDD7C690C692C694C686C68A1200F7
:101B52005804D8A41200F6EC0BF012005804D8A4D2
:101B620012006CEC0DF01200266E26C0BBFFCA8478
:101B72009E941200016E01C0ADFFACB21200FDD7FF
:101B8200C580C5A01200FDD7C582C5A21200FDD72F
:101B9200030E83EC0DF012005950B5EC0DF012005B
:101BA200610EB5EC0DF01200828A00F0829A1200EA
:101BB200010E83EC0DF01200818E1200819E120044
:061BC200012D12001200CB
:020000040020DA
:08000000FFFFFFFFFFFFFFFF00
:020000040030CA
:0E000000FF071F1FFF8385FF0FC00FE00F409B
:00000001FF
