:0400000053EF00F0CA
:060008005E8295EF08F096
:100018005E80D8CF11F0E8CF12F0E0CF13F0FACF1E
:1000280014F0FBCF15F0E9CF16F0EACF17F0E1CFC7
:1000380018F0E2CF19F0D9CF1AF0DACF1BF0F3CFCE
:100048001CF0F4CF1DF0F6CF1EF0F7CF1FF0F8CF5D
:1000580020F0F5CF21F021C0F5FF20C0F8FF1FC028
:10006800F7FF1EC0F6FF1DC0F4FF1CC0F3FF1BC046
:10007800DAFF1AC0D9FF19C0E2FF18C0E1FF17C0A4
:10008800EAFF16C0E9FF15C0FBFF14C0FAFF13C052
:10009800E0FF12C0E8FF11C0D8FF5E9010003FEFEC
:0200A8000AF05C
:10100000004C494748545F53574954434800200017
:0110100000DF
:10101200CBEC0BF0CAEC0BF0000E936E9268000E54
:10102200956E180E946E000E816E880ED56EF28A41
:10103200B60E0001806FD00EE82EFED7802FFCD7AF
:1010420000F0E1EC08F020EE93F010EE82F00E0ECC
:10105200DBCFE3FFE806FCE2820E246E000E256E73
:1010620069EC09F0060E0001816F130E0001806F1A
:10107200AD0EE82EFED7802FFCD7812FFAD700D0F5
:10108200200E596E73EC0BF0F4EC0AF07EEC0BF0D0
:101092000001926F0E0E246E100E256E69EC09F09F
:1010A20092C041F0426A3CEC0BF092C028F0296AEF
:1010B200D6EC0AF0A4EC09F028042910D8A416D022
:1010C2004CEC0BF0010E246E100E256E69EC09F04B
:1010D200060E0001816F130E0001806FAD0EE82E27
:1010E200FED7802FFCD7812FFAD700D011EC0BF05E
:1010F2000001916F06D0A3EC0BF00CD0A9EC0BF021
:1011020009D000019151010AD8B4F5D7030AD8B425
:10111200F5D7010A1A0E0001806FF80EE82EFED7ED
:10112200802FFCD700F0B2D7FACF03F0FBCF04F048
:10113200E9CF05F0EACF06F0E1CF07F0E2CF08F001
:10114200D9CF09F0DACF0AF0F3CF0BF0F4CF0CF0DD
:10115200F6CF0DF0F7CF0EF0F8CF0FF0F5CF10F07D
:10116200F2BAF2A40FD05B285B6E020E026E040E7E
:10117200016EBA0EE82EFED7012EFCD7022EFAD748
:1011820000D0F29410C0F5FF0FC0F8FF0EC0F7FFB9
:101192000DC0F6FF0CC0F4FF0BC0F3FF0AC0DAFF6C
:1011A20009C0D9FF08C0E2FF07C0E1FF06C0EAFF9D
:1011B20005C0E9FF04C0FBFF03C0FAFF5E92110005
:1011C200829A8294020E236E040E226EBA0EE82ECA
:1011D200FED7222EFCD7232EFAD700D0020E836E22
:1011E200C5EC0BF0020E836EC5EC0BF00F0E836E96
:1011F200C5EC0BF02E0EE82EFED700D0000E836E4B
:10120200C5EC0BF00F0E836EC5EC0BF02E0EE82E24
:10121200FED700D0000E836EC5EC0BF0010E836E7C
:10122200C5EC0BF01A0E226EF80EE82EFED7222E17
:10123200FCD700D0000E836EC5EC0BF0030E836E5C
:10124200C5EC0BF04E0E226EEB0EE82EFED7222ED0
:10125200FCD700F01200000E406E000E3F6E2B0E07
:101262003F24D96E000E4020DA6E29C022F02AC037
:1012720023F0000E256E0A0E246EB5EC0AF0225001
:10128200300FDF6E3F4A402A29C022F02AC023F0E5
:10129200000E256E0A0E246E68EC0AF022C029F0B8
:1012A20023C02AF029502A10D8B40DD0D8D73F062F
:1012B200D8A040062B0E3F24D96E000E4020DA6ED5
:1012C200DF5091EC0AF03F504010D8B41200EFD733
:1012D200000E296E000E286E1BD028502424266E84
:1012E20029502520276E26C0F6FF27C0F7FF000EE3
:1012F200F86E0F0EF76403D00800F55005D0F6CF54
:10130200E1FFF7CFE2FFE75091EC0AF0284A292AE1
:1013120028502424266E29502520276E26C0F6FF49
:1013220027C0F7FF000EF86E0F0EF76403D0080017
:10133200F55005D0F6CFE1FFF7CFE2FFE750000905
:10134200D8B41200CAD7000E2D6E0A0E2C6E2DBE16
:101352002ED02D5004E1080E2C5CD8A028D02C50A1
:101362005724226E2D505820236E000E256E0A0E31
:10137200246EDDEC09F0D89022362336430E222467
:10138200D96E000E2320DA6E010EDBBE0CD0010EE8
:10139200DB5004E1150EDE5CD8A005D0000E296EEC
:1013A200000E286E12002C06D8A02D06D0D7000EF3
:1013B200296E010E286E1200000E276E23AE06D093
:1013C200226C231ED8B0232A010E276E25AE04D02C
:1013D200246C251ED8B0252A24502510D8B418D044
:1013E200010E266E04D0D89024362536262A25AE44
:1013F200FAD72450225C25502358D8A004D0245078
:10140200225E2550235AD89025322432262EF1D737
:101412002750D8B404D0226C231ED8B0232A22C06D
:1014220022F023C023F01200080E5D6421D0F80ED2
:10143200236EFF0E246E5D50256E266A23502526EC
:101442002450262226BE06D0265009E1090E255C2C
:10145200D8B005D0000E286E080E276E06D0F80E02
:101462005D24276E286AFF0E282227C05DF002D075
:10147200080E5D6E5D50AFEC0BF012001C0EF66EA6
:10148200170EF76E000EF86E00EE93F010EE0FF0EE
:101492000900F5CFEEFFE550E150FAE1920EF66E4B
:1014A200170EF76E000EF86E0900F5CF5CF009001A
:1014B200F5CF5DF000EE43F0190EEE6AE806FDE1AD
:1014C2005E905E92000EF86E000109EF08F0000EC9
:1014D200286E000E276E24502510D8B41CD0010EA1
:1014E200266E04D0D89024362536262A25AEFAD781
:1014F200D890273628362450225C25502358D8A06D
:1015020005D02450225E2550235A2780D8902532B8
:101512002432262EEDD727C022F028C023F0120055
:10152200236E82841A0E226EF80EE82EFED7222E29
:10153200FCD700D023380F0B0F0B836EC5EC0BF0DA
:10154200030E226E980EE82EFED7222EFCD72350D1
:101552000F0B836EC5EC0BF0030E226E980EE82E75
:10156200FED7222EFCD7120024502510D8B418D052
:10157200010E266E04D0D89024362536262A25AEB2
:10158200FAD72450225C25502358D8A004D02450E6
:10159200225E2550235AD89025322432262EF1D7A6
:1015A20022C022F023C023F01200010E5724226E23
:1015B200000E5820236E000E256E0A0E246EDDECFE
:1015C20009F022C057F023C058F0D8905734D96E92
:1015D2005834DA6E430ED926000EDA2228C0DEFF16
:1015E20029C0DDFF1200000E236E000E226E23BE04
:1015F20006D0235014E10A0E225CD8B01200D89013
:101602002234D96E2334DA6E430ED926000EDA2242
:10161200650EDE6E000EDD6E224A232AE8D7120026
:10162200040E256E59502BEC0BF0286E08D0010EDB
:101632001200020E1200030E1200FF0E12002850BA
:10164200010AD8B4F4D7030AD8B4F3D7010AD8B43C
:10165200F2D7F3D7276E25C023F027505BEC0BF0AF
:10166200B9EC0BF02750010996EC0BF086EC0BF06D
:10167200266E2650120042AE07D02D0E91EC0AF0D3
:10168200416C421ED8B0422A41C029F042C02AF021
:101692002CEC09F012005C50D8A405D0010E5C6E4F
:1016A200BDEC0BF004D0000E5C6EC1EC0BF0F4EC60
:1016B2000AF01200246E9DEC0BF0B5EC0BF02450F6
:1016C20096EC0BF0235096EC0BF012002A0E5D60A4
:1016D20003D05D50080F01D0320E5D6E5D50AFEC4D
:1016E2000BF0120094921F0EBA6E000ECA6E330EE9
:1016F200CB6E190EAFEC0BF012000A0E256E59508C
:101702002BEC0BF0286E28501200C5869E969EA6E2
:10171200FED7C9CF22F02250120050524F475241F9
:091722004D20424547494E0000EC
:10172C00226E9E9622C0C9FF9EB61200FDD7C690AF
:10173C00C692C694C686C68A12005C04D8A412004F
:10174C0015EC0AF012005C04D8A4120067EC0BF044
:10175C001200226E22C0BBFFCA849E941200C58068
:10176C00C5A01200FDD7C582C5A21200FDD75D50E1
:10177C00AFEC0BF01200350EAFEC0BF01200828ABE
:0C178C0000D0829A12000114120012001A
:020000040020DA
:08000000FFFFFFFFFFFFFFFF00
:020000040030CA
:0E000000FF071F1FFF8385FF0FC00FE00F409B
:00000001FF
